{
  "contractName": "Exchange",
  "abi": [
    {
      "inputs": [],
      "stateMutability": "nonpayable",
      "type": "constructor"
    },
    {
      "inputs": [
        {
          "internalType": "address",
          "name": "_FARMER_CONTRACT",
          "type": "address"
        }
      ],
      "name": "initFARMERCONTRACT",
      "outputs": [],
      "stateMutability": "nonpayable",
      "type": "function"
    },
    {
      "inputs": [
        {
          "internalType": "bytes32",
          "name": "_farmProductId",
          "type": "bytes32"
        },
        {
          "internalType": "uint256",
          "name": "_totalSupply",
          "type": "uint256"
        },
        {
          "internalType": "address",
          "name": "_FARMER_CONTRACT",
          "type": "address"
        }
      ],
      "name": "addProduct",
      "outputs": [],
      "stateMutability": "nonpayable",
      "type": "function"
    },
    {
      "inputs": [
        {
          "internalType": "bytes32",
          "name": "_farmProductId",
          "type": "bytes32"
        },
        {
          "internalType": "uint256",
          "name": "_amount",
          "type": "uint256"
        }
      ],
      "name": "buyFarmProduct",
      "outputs": [],
      "stateMutability": "payable",
      "type": "function",
      "payable": true
    },
    {
      "inputs": [
        {
          "internalType": "bytes32",
          "name": "_farmProductId",
          "type": "bytes32"
        },
        {
          "internalType": "uint256",
          "name": "_amount",
          "type": "uint256"
        }
      ],
      "name": "retailStore",
      "outputs": [],
      "stateMutability": "nonpayable",
      "type": "function"
    }
  ],
  "bytecode": "0x608060405234801561001057600080fd5b50610edd806100206000396000f3fe60806040526004361061003f5760003560e01c806303202b9a1461004457806328a386e41461006d5780638636506b1461009657806394ac5c5e146100b2575b600080fd5b34801561005057600080fd5b5061006b600480360381019061006691906109cc565b6100db565b005b34801561007957600080fd5b50610094600480360381019061008f9190610a6a565b610165565b005b6100b060048036038101906100ab91906109cc565b610237565b005b3480156100be57600080fd5b506100d960048036038101906100d49190610a97565b610380565b005b8060016000848152602001908152602001600020600401541015610134576040517f08c379a000000000000000000000000000000000000000000000000000000000815260040161012b90610b47565b60405180910390fd5b8060016000848152602001908152602001600020600401600082825461015a9190610b96565b925050819055505050565b600073ffffffffffffffffffffffffffffffffffffffff1660008054906101000a900473ffffffffffffffffffffffffffffffffffffffff1673ffffffffffffffffffffffffffffffffffffffff16146101f4576040517f08c379a00000000000000000000000000000000000000000000000000000000081526004016101eb90610c3c565b60405180910390fd5b806000806101000a81548173ffffffffffffffffffffffffffffffffffffffff021916908373ffffffffffffffffffffffffffffffffffffffff16021790555050565b8060016000848152602001908152602001600020600401541015610290576040517f08c379a000000000000000000000000000000000000000000000000000000000815260040161028790610b47565b60405180910390fd5b600260003373ffffffffffffffffffffffffffffffffffffffff1673ffffffffffffffffffffffffffffffffffffffff1681526020019081526020016000206102d983836105f9565b90806001815401808255809150506001900390600052602060002001600090919091909150556001600083815260200190815260200160002060020160009054906101000a900473ffffffffffffffffffffffffffffffffffffffff1673ffffffffffffffffffffffffffffffffffffffff166108fc349081150290604051600060405180830381858888f1935050505015801561037b573d6000803e3d6000fd5b505050565b60008054906101000a900473ffffffffffffffffffffffffffffffffffffffff1673ffffffffffffffffffffffffffffffffffffffff168173ffffffffffffffffffffffffffffffffffffffff161461040e576040517f08c379a000000000000000000000000000000000000000000000000000000000815260040161040590610ca8565b60405180910390fd5b600073ffffffffffffffffffffffffffffffffffffffff166001600085815260200190815260200160002060020160009054906101000a900473ffffffffffffffffffffffffffffffffffffffff1673ffffffffffffffffffffffffffffffffffffffff16146104b3576040517f08c379a00000000000000000000000000000000000000000000000000000000081526004016104aa90610d14565b60405180910390fd5b6040518060e001604052808481526020018481526020013373ffffffffffffffffffffffffffffffffffffffff1681526020018381526020018381526020016000801b8152602001600067ffffffffffffffff81111561051657610515610d34565b5b6040519080825280602002602001820160405280156105445781602001602082028036833780820191505090505b5081525060016000858152602001908152602001600020600082015181600001556020820151816001015560408201518160020160006101000a81548173ffffffffffffffffffffffffffffffffffffffff021916908373ffffffffffffffffffffffffffffffffffffffff160217905550606082015181600301556080820151816004015560a0820151816005015560c08201518160060190805190602001906105f09291906108f1565b50905050505050565b600080833384426040516020016106139493929190610ded565b604051602081830303815290604052805190602001209050600073ffffffffffffffffffffffffffffffffffffffff166001600083815260200190815260200160002060020160009054906101000a900473ffffffffffffffffffffffffffffffffffffffff1673ffffffffffffffffffffffffffffffffffffffff16146106d0576040517f08c379a00000000000000000000000000000000000000000000000000000000081526004016106c790610e87565b60405180910390fd5b8260016000868152602001908152602001600020600401541015610729576040517f08c379a000000000000000000000000000000000000000000000000000000000815260040161072090610b47565b60405180910390fd5b6040518060e00160405280828152602001600160008781526020019081526020016000206001015481526020013373ffffffffffffffffffffffffffffffffffffffff168152602001848152602001848152602001858152602001600067ffffffffffffffff81111561079f5761079e610d34565b5b6040519080825280602002602001820160405280156107cd5781602001602082028036833780820191505090505b5081525060016000838152602001908152602001600020600082015181600001556020820151816001015560408201518160020160006101000a81548173ffffffffffffffffffffffffffffffffffffffff021916908373ffffffffffffffffffffffffffffffffffffffff160217905550606082015181600301556080820151816004015560a0820151816005015560c08201518160060190805190602001906108799291906108f1565b50905050826001600086815260200190815260200160002060040160008282546108a39190610b96565b92505081905550600160008581526020019081526020016000206006018190806001815401808255809150506001900390600052602060002001600090919091909150558091505092915050565b82805482825590600052602060002090810192821561092d579160200282015b8281111561092c578251825591602001919060010190610911565b5b50905061093a919061093e565b5090565b5b8082111561095757600081600090555060010161093f565b5090565b600080fd5b6000819050919050565b61097381610960565b811461097e57600080fd5b50565b6000813590506109908161096a565b92915050565b6000819050919050565b6109a981610996565b81146109b457600080fd5b50565b6000813590506109c6816109a0565b92915050565b600080604083850312156109e3576109e261095b565b5b60006109f185828601610981565b9250506020610a02858286016109b7565b9150509250929050565b600073ffffffffffffffffffffffffffffffffffffffff82169050919050565b6000610a3782610a0c565b9050919050565b610a4781610a2c565b8114610a5257600080fd5b50565b600081359050610a6481610a3e565b92915050565b600060208284031215610a8057610a7f61095b565b5b6000610a8e84828501610a55565b91505092915050565b600080600060608486031215610ab057610aaf61095b565b5b6000610abe86828701610981565b9350506020610acf868287016109b7565b9250506040610ae086828701610a55565b9150509250925092565b600082825260208201905092915050565b7f496e73756666696369656e74206661726d2070726f6475637420737570706c79600082015250565b6000610b31602083610aea565b9150610b3c82610afb565b602082019050919050565b60006020820190508181036000830152610b6081610b24565b9050919050565b7f4e487b7100000000000000000000000000000000000000000000000000000000600052601160045260246000fd5b6000610ba182610996565b9150610bac83610996565b9250828203905081811115610bc457610bc3610b67565b5b92915050565b7f4641524d45525f434f4e545241435420616c726561647920696e697469616c6960008201527f7a65640000000000000000000000000000000000000000000000000000000000602082015250565b6000610c26602383610aea565b9150610c3182610bca565b604082019050919050565b60006020820190508181036000830152610c5581610c19565b9050919050565b7f496e76616c6964204641524d45525f434f4e5452414354206164647265737300600082015250565b6000610c92601f83610aea565b9150610c9d82610c5c565b602082019050919050565b60006020820190508181036000830152610cc181610c85565b9050919050565b7f4661726d2070726f6475637420616c7265616479206578697374730000000000600082015250565b6000610cfe601b83610aea565b9150610d0982610cc8565b602082019050919050565b60006020820190508181036000830152610d2d81610cf1565b9050919050565b7f4e487b7100000000000000000000000000000000000000000000000000000000600052604160045260246000fd5b6000819050919050565b610d7e610d7982610960565b610d63565b82525050565b60008160601b9050919050565b6000610d9c82610d84565b9050919050565b6000610dae82610d91565b9050919050565b610dc6610dc182610a2c565b610da3565b82525050565b6000819050919050565b610de7610de282610996565b610dcc565b82525050565b6000610df98287610d6d565b602082019150610e098286610db5565b601482019150610e198285610dd6565b602082019150610e298284610dd6565b60208201915081905095945050505050565b7f4e6577206661726d2070726f6475637420616c72656164792065786973747300600082015250565b6000610e71601f83610aea565b9150610e7c82610e3b565b602082019050919050565b60006020820190508181036000830152610ea081610e64565b905091905056fea2646970667358221220f51f483cba22331c21980e2b357fc882d8b17321e8a3330a1f5c8ecd4572c52d64736f6c63430008130033",
  "immutableReferences": {},
  "source": "// SPDX-License-Identifier: MIT\r\npragma solidity ^0.8.4;\r\n\r\ncontract Exchange {\r\n\r\n    struct FarmProduct {\r\n        bytes32 farmProductId;\r\n        bytes32 farmProductTag;\r\n        address payable owner;\r\n        uint totalSupply;\r\n        uint currentSupply;\r\n        bytes32 parentFarmProduct;\r\n        bytes32[] childFarmProduct;\r\n    }\r\n    \r\n    address FARMER_CONTRACT;\r\n    mapping(bytes32 => FarmProduct) farmProduct;\r\n    mapping(address => bytes32[]) distributorFarmProductOwn;\r\n\r\n    constructor() {}\r\n\r\n    function initFARMERCONTRACT(address _FARMER_CONTRACT) public {\r\n        require(FARMER_CONTRACT == address(0), \"FARMER_CONTRACT already initialized\");\r\n        FARMER_CONTRACT = _FARMER_CONTRACT;\r\n    }\r\n\r\n    function addProduct(bytes32 _farmProductId, uint _totalSupply, address _FARMER_CONTRACT) public {\r\n        require(_FARMER_CONTRACT == FARMER_CONTRACT, \"Invalid FARMER_CONTRACT address\");\r\n        require(farmProduct[_farmProductId].owner == address(0), \"Farm product already exists\");\r\n        farmProduct[_farmProductId] = FarmProduct({\r\n            farmProductId: _farmProductId,\r\n            farmProductTag: _farmProductId,\r\n            owner: payable(msg.sender),\r\n            totalSupply: _totalSupply,\r\n            currentSupply: _totalSupply,\r\n            parentFarmProduct: bytes32(0),\r\n            childFarmProduct: new bytes32[](0)\r\n        });\r\n    }\r\n\r\n    function divideProduct(bytes32 _farmProductId, uint _amount) private returns(bytes32) {\r\n        bytes32 _newFarmProductId = keccak256(abi.encodePacked(_farmProductId, msg.sender, _amount, block.timestamp));\r\n        require(farmProduct[_newFarmProductId].owner == address(0), \"New farm product already exists\");\r\n        require(farmProduct[_farmProductId].currentSupply >= _amount, \"Insufficient farm product supply\");\r\n\r\n        farmProduct[_newFarmProductId] = FarmProduct({\r\n            farmProductId: _newFarmProductId,\r\n            farmProductTag: farmProduct[_farmProductId].farmProductTag,\r\n            owner: payable(msg.sender),\r\n            totalSupply: _amount,\r\n            currentSupply: _amount,\r\n            parentFarmProduct: _farmProductId,\r\n            childFarmProduct: new bytes32[](0)\r\n        });\r\n\r\n        farmProduct[_farmProductId].currentSupply -= _amount;\r\n        farmProduct[_farmProductId].childFarmProduct.push(_newFarmProductId);\r\n\r\n        return _newFarmProductId;\r\n    }\r\n\r\n    function buyFarmProduct(bytes32 _farmProductId, uint _amount) public payable {\r\n        require(farmProduct[_farmProductId].currentSupply >= _amount, \"Insufficient farm product supply\");\r\n        distributorFarmProductOwn[msg.sender].push(divideProduct(_farmProductId, _amount));\r\n        farmProduct[_farmProductId].owner.transfer(msg.value);\r\n    }\r\n\r\n    function retailStore(bytes32 _farmProductId, uint _amount) public {\r\n        require(farmProduct[_farmProductId].currentSupply >= _amount, \"Insufficient farm product supply\");\r\n        farmProduct[_farmProductId].currentSupply -= _amount;\r\n    }\r\n}",
  "sourcePath": "D:\\Blue chip technologies\\Blockchain dev intern\\Task_3\\test-sca\\test-sca\\contracts\\Exchange.sol",
  "compiler": {
    "name": "solc",
    "version": "0.8.19+commit.7dd6d404.Emscripten.clang"
  },
  "schemaVersion": "3.4.13",
  "updatedAt": "2023-06-06T04:25:09.532Z",
  "networkType": "ethereum",
  "devdoc": {
    "kind": "dev",
    "methods": {},
    "version": 1
  },
  "userdoc": {
    "kind": "user",
    "methods": {},
    "version": 1
  }
}