{
  "contractName": "Factories",
  "abi": [
    {
      "anonymous": false,
      "inputs": [
        {
          "indexed": true,
          "internalType": "bytes32",
          "name": "id",
          "type": "bytes32"
        },
        {
          "indexed": false,
          "internalType": "string",
          "name": "name",
          "type": "string"
        },
        {
          "indexed": false,
          "internalType": "address",
          "name": "wallet",
          "type": "address"
        }
      ],
      "name": "FactoryRegistered",
      "type": "event"
    },
    {
      "anonymous": false,
      "inputs": [
        {
          "indexed": true,
          "internalType": "bytes32",
          "name": "id",
          "type": "bytes32"
        },
        {
          "indexed": false,
          "internalType": "bytes32",
          "name": "lotId",
          "type": "bytes32"
        },
        {
          "indexed": false,
          "internalType": "int256[3]",
          "name": "npk",
          "type": "int256[3]"
        },
        {
          "indexed": false,
          "internalType": "string",
          "name": "detail",
          "type": "string"
        }
      ],
      "name": "FertilizerProduced",
      "type": "event"
    },
    {
      "inputs": [
        {
          "internalType": "address",
          "name": "",
          "type": "address"
        }
      ],
      "name": "factories",
      "outputs": [
        {
          "internalType": "string",
          "name": "name",
          "type": "string"
        },
        {
          "internalType": "address",
          "name": "wallet",
          "type": "address"
        },
        {
          "internalType": "bytes32",
          "name": "id",
          "type": "bytes32"
        },
        {
          "internalType": "string",
          "name": "facAddress",
          "type": "string"
        }
      ],
      "stateMutability": "view",
      "type": "function",
      "constant": true
    },
    {
      "inputs": [
        {
          "internalType": "address",
          "name": "",
          "type": "address"
        },
        {
          "internalType": "bytes32",
          "name": "",
          "type": "bytes32"
        }
      ],
      "name": "factoriesFertilizerInfo",
      "outputs": [
        {
          "internalType": "bytes32",
          "name": "fertilizerId",
          "type": "bytes32"
        },
        {
          "internalType": "string",
          "name": "detail",
          "type": "string"
        },
        {
          "internalType": "uint256",
          "name": "price",
          "type": "uint256"
        }
      ],
      "stateMutability": "view",
      "type": "function",
      "constant": true
    },
    {
      "inputs": [
        {
          "internalType": "address",
          "name": "",
          "type": "address"
        },
        {
          "internalType": "bytes32",
          "name": "",
          "type": "bytes32"
        },
        {
          "internalType": "uint256",
          "name": "",
          "type": "uint256"
        }
      ],
      "name": "factoriesFertilizerLot",
      "outputs": [
        {
          "internalType": "bytes32",
          "name": "",
          "type": "bytes32"
        }
      ],
      "stateMutability": "view",
      "type": "function",
      "constant": true
    },
    {
      "inputs": [
        {
          "internalType": "bytes32",
          "name": "",
          "type": "bytes32"
        }
      ],
      "name": "fertilizerLot",
      "outputs": [
        {
          "internalType": "address",
          "name": "ownerWallet",
          "type": "address"
        },
        {
          "internalType": "uint256",
          "name": "date",
          "type": "uint256"
        },
        {
          "internalType": "uint256",
          "name": "quantity",
          "type": "uint256"
        },
        {
          "internalType": "uint256",
          "name": "price",
          "type": "uint256"
        },
        {
          "internalType": "enum Factories.Status",
          "name": "status",
          "type": "uint8"
        }
      ],
      "stateMutability": "view",
      "type": "function",
      "constant": true
    },
    {
      "inputs": [
        {
          "internalType": "bytes32",
          "name": "",
          "type": "bytes32"
        }
      ],
      "name": "produceTagToWallet",
      "outputs": [
        {
          "internalType": "address payable",
          "name": "",
          "type": "address"
        }
      ],
      "stateMutability": "view",
      "type": "function",
      "constant": true
    },
    {
      "inputs": [
        {
          "internalType": "string",
          "name": "_name",
          "type": "string"
        },
        {
          "internalType": "string",
          "name": "_facAddress",
          "type": "string"
        }
      ],
      "name": "registerFactory",
      "outputs": [],
      "stateMutability": "nonpayable",
      "type": "function"
    },
    {
      "inputs": [
        {
          "internalType": "bytes32",
          "name": "_id",
          "type": "bytes32"
        },
        {
          "internalType": "int256[3]",
          "name": "_npk",
          "type": "int256[3]"
        },
        {
          "internalType": "string",
          "name": "_detail",
          "type": "string"
        },
        {
          "internalType": "uint256",
          "name": "_quantity",
          "type": "uint256"
        },
        {
          "internalType": "uint256",
          "name": "_price",
          "type": "uint256"
        }
      ],
      "name": "produceFertilizerLot",
      "outputs": [],
      "stateMutability": "nonpayable",
      "type": "function"
    },
    {
      "inputs": [
        {
          "internalType": "bytes32",
          "name": "_id",
          "type": "bytes32"
        }
      ],
      "name": "getFertilizerLots",
      "outputs": [
        {
          "internalType": "bytes32[]",
          "name": "",
          "type": "bytes32[]"
        }
      ],
      "stateMutability": "view",
      "type": "function",
      "constant": true
    },
    {
      "inputs": [
        {
          "internalType": "bytes32",
          "name": "_produceTag",
          "type": "bytes32"
        }
      ],
      "name": "getPrice",
      "outputs": [
        {
          "internalType": "uint256",
          "name": "",
          "type": "uint256"
        }
      ],
      "stateMutability": "view",
      "type": "function",
      "constant": true
    },
    {
      "inputs": [
        {
          "internalType": "bytes32",
          "name": "_fertilizerId",
          "type": "bytes32"
        },
        {
          "internalType": "bytes32",
          "name": "_produceTag",
          "type": "bytes32"
        },
        {
          "internalType": "uint256",
          "name": "_buyAmount",
          "type": "uint256"
        }
      ],
      "name": "sellFert",
      "outputs": [],
      "stateMutability": "payable",
      "type": "function",
      "payable": true
    },
    {
      "inputs": [
        {
          "internalType": "bytes32",
          "name": "_produceTag",
          "type": "bytes32"
        }
      ],
      "name": "getWallet",
      "outputs": [
        {
          "internalType": "address",
          "name": "",
          "type": "address"
        }
      ],
      "stateMutability": "view",
      "type": "function",
      "constant": true
    }
  ],
  "bytecode": "0x608060405234801561001057600080fd5b5061241d806100206000396000f3fe60806040526004361061009c5760003560e01c80638aa053a4116100645780638aa053a4146101c0578063cb228060146101fd578063d44b838914610219578063df8e698714610256578063e8fdb87f1461027f578063fab52689146102c05761009c565b80631a467f9e146100a15780632092581d146100ca57806331d98b3f14610107578063789d392a1461014457806383608a7d14610181575b600080fd5b3480156100ad57600080fd5b506100c860048036038101906100c3919061140c565b610300565b005b3480156100d657600080fd5b506100f160048036038101906100ec919061154e565b6104d2565b6040516100fe91906115b0565b60405180910390f35b34801561011357600080fd5b5061012e600480360381019061012991906115cb565b610510565b60405161013b9190611607565b60405180910390f35b34801561015057600080fd5b5061016b600480360381019061016691906115cb565b61056d565b6040516101789190611631565b60405180910390f35b34801561018d57600080fd5b506101a860048036038101906101a3919061164c565b610756565b6040516101b79392919061170b565b60405180910390f35b3480156101cc57600080fd5b506101e760048036038101906101e291906115cb565b610815565b6040516101f4919061176a565b60405180910390f35b61021760048036038101906102129190611785565b610848565b005b34801561022557600080fd5b50610240600480360381019061023b91906115cb565b610ba9565b60405161024d9190611896565b60405180910390f35b34801561026257600080fd5b5061027d600480360381019061027891906119a4565b610c51565b005b34801561028b57600080fd5b506102a660048036038101906102a191906115cb565b611028565b6040516102b7959493929190611ab2565b60405180910390f35b3480156102cc57600080fd5b506102e760048036038101906102e29190611b05565b61108b565b6040516102f79493929190611b32565b60405180910390f35b6000434233856040516020016103199493929190611c2a565b6040516020818303038152906040528051906020012090506040518060a001604052808481526020013373ffffffffffffffffffffffffffffffffffffffff168152602001828152602001838152602001600067ffffffffffffffff811115610385576103846112e1565b5b6040519080825280602002602001820160405280156103b35781602001602082028036833780820191505090505b50815250600160003373ffffffffffffffffffffffffffffffffffffffff1673ffffffffffffffffffffffffffffffffffffffff168152602001908152602001600020600082015181600001908161040b9190611e80565b5060208201518160010160006101000a81548173ffffffffffffffffffffffffffffffffffffffff021916908373ffffffffffffffffffffffffffffffffffffffff1602179055506040820151816002015560608201518160030190816104729190611e80565b50608082015181600401908051906020019061048f9291906111eb565b50905050807f0a1c1199ad7510f9ad78f96ffa27f12e19bfe7e3e2b26a04e02e3592c383b2fe84336040516104c5929190611f52565b60405180910390a2505050565b600360205282600052604060002060205281600052604060002081815481106104fa57600080fd5b9060005260206000200160009250925050505481565b6000600260003373ffffffffffffffffffffffffffffffffffffffff1673ffffffffffffffffffffffffffffffffffffffff1681526020019081526020016000206000838152602001908152602001600020600501549050919050565b600080600090505b600160003373ffffffffffffffffffffffffffffffffffffffff1673ffffffffffffffffffffffffffffffffffffffff1681526020019081526020016000206004018054905081101561074b576000600160003373ffffffffffffffffffffffffffffffffffffffff1673ffffffffffffffffffffffffffffffffffffffff168152602001908152602001600020600401828154811061061857610617611f82565b5b90600052602060002001549050836040516020016106369190611fd2565b60405160208183030381529060405280519060200120600260003373ffffffffffffffffffffffffffffffffffffffff1673ffffffffffffffffffffffffffffffffffffffff1681526020019081526020016000206000838152602001908152602001600020600001546040516020016106b09190611fd2565b604051602081830303815290604052805190602001200361073757600160003373ffffffffffffffffffffffffffffffffffffffff1673ffffffffffffffffffffffffffffffffffffffff16815260200190815260200160002060010160009054906101000a900473ffffffffffffffffffffffffffffffffffffffff1692505050610751565b5080806107439061201c565b915050610575565b50600090505b919050565b60026020528160005260406000206020528060005260406000206000915091505080600001549080600401805461078c90611ca3565b80601f01602080910402602001604051908101604052809291908181526020018280546107b890611ca3565b80156108055780601f106107da57610100808354040283529160200191610805565b820191906000526020600020905b8154815290600101906020018083116107e857829003601f168201915b5050505050908060050154905083565b60006020528060005260406000206000915054906101000a900473ffffffffffffffffffffffffffffffffffffffff1681565b60008161085485610510565b61085e9190612064565b90508034146108a2576040517f08c379a0000000000000000000000000000000000000000000000000000000008152600401610899906120f2565b60405180910390fd5b60006108ad8461056d565b9050600073ffffffffffffffffffffffffffffffffffffffff168173ffffffffffffffffffffffffffffffffffffffff160361091e576040517f08c379a00000000000000000000000000000000000000000000000000000000081526004016109159061215e565b60405180910390fd5b8073ffffffffffffffffffffffffffffffffffffffff166108fc349081150290604051600060405180830381858888f19350505050158015610964573d6000803e3d6000fd5b506000600360003373ffffffffffffffffffffffffffffffffffffffff1673ffffffffffffffffffffffffffffffffffffffff16815260200190815260200160002060008781526020019081526020016000209050600084905060005b8280549050811080156109d45750600082115b15610b5c576000600460008584815481106109f2576109f1611f82565b5b90600052602060002001548152602001908152602001600020905060016002811115610a2157610a20611a3b565b5b8160040160009054906101000a900460ff166002811115610a4557610a44611a3b565b5b148015610a56575060008160020154115b8015610a6d5750610a6689610510565b8160030154145b15610b4857600083826002015410610a855783610a8b565b81600201545b905080826002016000828254610aa1919061217e565b925050819055508084610ab4919061217e565b93506000826002015403610af05760008260040160006101000a81548160ff02191690836002811115610aea57610ae9611a3b565b5b02179055505b3373ffffffffffffffffffffffffffffffffffffffff166108fc836003015483610b1a9190612064565b9081150290604051600060405180830381858888f19350505050158015610b45573d6000803e3d6000fd5b50505b508080610b549061201c565b9150506109c1565b5060008114610ba0576040517f08c379a0000000000000000000000000000000000000000000000000000000008152600401610b9790612224565b60405180910390fd5b50505050505050565b6060600360003373ffffffffffffffffffffffffffffffffffffffff1673ffffffffffffffffffffffffffffffffffffffff1681526020019081526020016000206000838152602001908152602001600020805480602002602001604051908101604052809291908181526020018280548015610c4557602002820191906000526020600020905b815481526020019060010190808311610c31575b50505050509050919050565b600073ffffffffffffffffffffffffffffffffffffffff16600160003373ffffffffffffffffffffffffffffffffffffffff1673ffffffffffffffffffffffffffffffffffffffff16815260200190815260200160002060010160009054906101000a900473ffffffffffffffffffffffffffffffffffffffff1673ffffffffffffffffffffffffffffffffffffffff1603610d22576040517f08c379a0000000000000000000000000000000000000000000000000000000008152600401610d1990612290565b60405180910390fd5b600085434233604051602001610d3b94939291906122b0565b6040516020818303038152906040528051906020012090506040518060a001604052803373ffffffffffffffffffffffffffffffffffffffff16815260200142815260200184815260200183815260200160016002811115610da057610d9f611a3b565b5b8152506004600083815260200190815260200160002060008201518160000160006101000a81548173ffffffffffffffffffffffffffffffffffffffff021916908373ffffffffffffffffffffffffffffffffffffffff16021790555060208201518160010155604082015181600201556060820151816003015560808201518160040160006101000a81548160ff02191690836002811115610e4657610e45611a3b565b5b0217905550905050600160003373ffffffffffffffffffffffffffffffffffffffff1673ffffffffffffffffffffffffffffffffffffffff168152602001908152602001600020600401869080600181540180825580915050600190039060005260206000200160009091909190915055604051806080016040528087815260200186815260200185815260200183815250600260003373ffffffffffffffffffffffffffffffffffffffff1673ffffffffffffffffffffffffffffffffffffffff168152602001908152602001600020600088815260200190815260200160002060008201518160000155602082015181600101906003610f49929190611238565b506040820151816004019081610f5f9190611e80565b5060608201518160050155905050600360003373ffffffffffffffffffffffffffffffffffffffff1673ffffffffffffffffffffffffffffffffffffffff1681526020019081526020016000206000878152602001908152602001600020819080600181540180825580915050600190039060005260206000200160009091909190915055857f02c4254e7237fd58991c606ca0c52c289b62fc0a0300a2abb6cc98f1faec0341828787604051611018939291906123a9565b60405180910390a2505050505050565b60046020528060005260406000206000915090508060000160009054906101000a900473ffffffffffffffffffffffffffffffffffffffff16908060010154908060020154908060030154908060040160009054906101000a900460ff16905085565b60016020528060005260406000206000915090508060000180546110ae90611ca3565b80601f01602080910402602001604051908101604052809291908181526020018280546110da90611ca3565b80156111275780601f106110fc57610100808354040283529160200191611127565b820191906000526020600020905b81548152906001019060200180831161110a57829003601f168201915b5050505050908060010160009054906101000a900473ffffffffffffffffffffffffffffffffffffffff169080600201549080600301805461116890611ca3565b80601f016020809104026020016040519081016040528092919081815260200182805461119490611ca3565b80156111e15780601f106111b6576101008083540402835291602001916111e1565b820191906000526020600020905b8154815290600101906020018083116111c457829003601f168201915b5050505050905084565b828054828255906000526020600020908101928215611227579160200282015b8281111561122657825182559160200191906001019061120b565b5b5090506112349190611278565b5090565b8260038101928215611267579160200282015b8281111561126657825182559160200191906001019061124b565b5b5090506112749190611295565b5090565b5b80821115611291576000816000905550600101611279565b5090565b5b808211156112ae576000816000905550600101611296565b5090565b6000604051905090565b600080fd5b600080fd5b600080fd5b600080fd5b6000601f19601f8301169050919050565b7f4e487b7100000000000000000000000000000000000000000000000000000000600052604160045260246000fd5b611319826112d0565b810181811067ffffffffffffffff82111715611338576113376112e1565b5b80604052505050565b600061134b6112b2565b90506113578282611310565b919050565b600067ffffffffffffffff821115611377576113766112e1565b5b611380826112d0565b9050602081019050919050565b82818337600083830152505050565b60006113af6113aa8461135c565b611341565b9050828152602081018484840111156113cb576113ca6112cb565b5b6113d684828561138d565b509392505050565b600082601f8301126113f3576113f26112c6565b5b813561140384826020860161139c565b91505092915050565b60008060408385031215611423576114226112bc565b5b600083013567ffffffffffffffff811115611441576114406112c1565b5b61144d858286016113de565b925050602083013567ffffffffffffffff81111561146e5761146d6112c1565b5b61147a858286016113de565b9150509250929050565b600073ffffffffffffffffffffffffffffffffffffffff82169050919050565b60006114af82611484565b9050919050565b6114bf816114a4565b81146114ca57600080fd5b50565b6000813590506114dc816114b6565b92915050565b6000819050919050565b6114f5816114e2565b811461150057600080fd5b50565b600081359050611512816114ec565b92915050565b6000819050919050565b61152b81611518565b811461153657600080fd5b50565b60008135905061154881611522565b92915050565b600080600060608486031215611567576115666112bc565b5b6000611575868287016114cd565b935050602061158686828701611503565b925050604061159786828701611539565b9150509250925092565b6115aa816114e2565b82525050565b60006020820190506115c560008301846115a1565b92915050565b6000602082840312156115e1576115e06112bc565b5b60006115ef84828501611503565b91505092915050565b61160181611518565b82525050565b600060208201905061161c60008301846115f8565b92915050565b61162b816114a4565b82525050565b60006020820190506116466000830184611622565b92915050565b60008060408385031215611663576116626112bc565b5b6000611671858286016114cd565b925050602061168285828601611503565b9150509250929050565b600081519050919050565b600082825260208201905092915050565b60005b838110156116c65780820151818401526020810190506116ab565b60008484015250505050565b60006116dd8261168c565b6116e78185611697565b93506116f78185602086016116a8565b611700816112d0565b840191505092915050565b600060608201905061172060008301866115a1565b818103602083015261173281856116d2565b905061174160408301846115f8565b949350505050565b600061175482611484565b9050919050565b61176481611749565b82525050565b600060208201905061177f600083018461175b565b92915050565b60008060006060848603121561179e5761179d6112bc565b5b60006117ac86828701611503565b93505060206117bd86828701611503565b92505060406117ce86828701611539565b9150509250925092565b600081519050919050565b600082825260208201905092915050565b6000819050602082019050919050565b61180d816114e2565b82525050565b600061181f8383611804565b60208301905092915050565b6000602082019050919050565b6000611843826117d8565b61184d81856117e3565b9350611858836117f4565b8060005b838110156118895781516118708882611813565b975061187b8361182b565b92505060018101905061185c565b5085935050505092915050565b600060208201905081810360008301526118b08184611838565b905092915050565b600067ffffffffffffffff8211156118d3576118d26112e1565b5b602082029050919050565b600080fd5b6000819050919050565b6118f6816118e3565b811461190157600080fd5b50565b600081359050611913816118ed565b92915050565b600061192c611927846118b8565b611341565b90508060208402830185811115611946576119456118de565b5b835b8181101561196f578061195b8882611904565b845260208401935050602081019050611948565b5050509392505050565b600082601f83011261198e5761198d6112c6565b5b600361199b848285611919565b91505092915050565b600080600080600060e086880312156119c0576119bf6112bc565b5b60006119ce88828901611503565b95505060206119df88828901611979565b945050608086013567ffffffffffffffff811115611a00576119ff6112c1565b5b611a0c888289016113de565b93505060a0611a1d88828901611539565b92505060c0611a2e88828901611539565b9150509295509295909350565b7f4e487b7100000000000000000000000000000000000000000000000000000000600052602160045260246000fd5b60038110611a7b57611a7a611a3b565b5b50565b6000819050611a8c82611a6a565b919050565b6000611a9c82611a7e565b9050919050565b611aac81611a91565b82525050565b600060a082019050611ac76000830188611622565b611ad460208301876115f8565b611ae160408301866115f8565b611aee60608301856115f8565b611afb6080830184611aa3565b9695505050505050565b600060208284031215611b1b57611b1a6112bc565b5b6000611b29848285016114cd565b91505092915050565b60006080820190508181036000830152611b4c81876116d2565b9050611b5b6020830186611622565b611b6860408301856115a1565b8181036060830152611b7a81846116d2565b905095945050505050565b6000819050919050565b611ba0611b9b82611518565b611b85565b82525050565b60008160601b9050919050565b6000611bbe82611ba6565b9050919050565b6000611bd082611bb3565b9050919050565b611be8611be3826114a4565b611bc5565b82525050565b600081905092915050565b6000611c048261168c565b611c0e8185611bee565b9350611c1e8185602086016116a8565b80840191505092915050565b6000611c368287611b8f565b602082019150611c468286611b8f565b602082019150611c568285611bd7565b601482019150611c668284611bf9565b915081905095945050505050565b7f4e487b7100000000000000000000000000000000000000000000000000000000600052602260045260246000fd5b60006002820490506001821680611cbb57607f821691505b602082108103611cce57611ccd611c74565b5b50919050565b60008190508160005260206000209050919050565b60006020601f8301049050919050565b600082821b905092915050565b600060088302611d367fffffffffffffffffffffffffffffffffffffffffffffffffffffffffffffffff82611cf9565b611d408683611cf9565b95508019841693508086168417925050509392505050565b6000819050919050565b6000611d7d611d78611d7384611518565b611d58565b611518565b9050919050565b6000819050919050565b611d9783611d62565b611dab611da382611d84565b848454611d06565b825550505050565b600090565b611dc0611db3565b611dcb818484611d8e565b505050565b5b81811015611def57611de4600082611db8565b600181019050611dd1565b5050565b601f821115611e3457611e0581611cd4565b611e0e84611ce9565b81016020851015611e1d578190505b611e31611e2985611ce9565b830182611dd0565b50505b505050565b600082821c905092915050565b6000611e5760001984600802611e39565b1980831691505092915050565b6000611e708383611e46565b9150826002028217905092915050565b611e898261168c565b67ffffffffffffffff811115611ea257611ea16112e1565b5b611eac8254611ca3565b611eb7828285611df3565b600060209050601f831160018114611eea5760008415611ed8578287015190505b611ee28582611e64565b865550611f4a565b601f198416611ef886611cd4565b60005b82811015611f2057848901518255600182019150602085019450602081019050611efb565b86831015611f3d5784890151611f39601f891682611e46565b8355505b6001600288020188555050505b505050505050565b60006040820190508181036000830152611f6c81856116d2565b9050611f7b6020830184611622565b9392505050565b7f4e487b7100000000000000000000000000000000000000000000000000000000600052603260045260246000fd5b6000819050919050565b611fcc611fc7826114e2565b611fb1565b82525050565b6000611fde8284611fbb565b60208201915081905092915050565b7f4e487b7100000000000000000000000000000000000000000000000000000000600052601160045260246000fd5b600061202782611518565b91507fffffffffffffffffffffffffffffffffffffffffffffffffffffffffffffffff820361205957612058611fed565b5b600182019050919050565b600061206f82611518565b915061207a83611518565b925082820261208881611518565b9150828204841483151761209f5761209e611fed565b5b5092915050565b7f496e73756666696369656e742066756e64730000000000000000000000000000600082015250565b60006120dc601283611697565b91506120e7826120a6565b602082019050919050565b6000602082019050818103600083015261210b816120cf565b9050919050565b7f466163746f7279206e6f7420666f756e64000000000000000000000000000000600082015250565b6000612148601183611697565b915061215382612112565b602082019050919050565b600060208201905081810360008301526121778161213b565b9050919050565b600061218982611518565b915061219483611518565b92508282039050818111156121ac576121ab611fed565b5b92915050565b7f4e6f7420656e6f7567682066657274696c697a6572206c6f747320617661696c60008201527f61626c6500000000000000000000000000000000000000000000000000000000602082015250565b600061220e602483611697565b9150612219826121b2565b604082019050919050565b6000602082019050818103600083015261223d81612201565b9050919050565b7f466163746f7279206e6f7420666f756e64210000000000000000000000000000600082015250565b600061227a601283611697565b915061228582612244565b602082019050919050565b600060208201905081810360008301526122a98161226d565b9050919050565b60006122bc8287611fbb565b6020820191506122cc8286611b8f565b6020820191506122dc8285611b8f565b6020820191506122ec8284611bd7565b60148201915081905095945050505050565b600060039050919050565b600081905092915050565b6000819050919050565b612327816118e3565b82525050565b6000612339838361231e565b60208301905092915050565b6000602082019050919050565b61235b816122fe565b6123658184612309565b925061237082612314565b8060005b838110156123a1578151612388878261232d565b965061239383612345565b925050600181019050612374565b505050505050565b600060a0820190506123be60008301866115a1565b6123cb6020830185612352565b81810360808301526123dd81846116d2565b905094935050505056fea26469706673582212201e62fd68647767f4642c5c7a2b448ab3ea998b824af7af76c0dd4b1ae62ba07764736f6c63430008130033",
  "immutableReferences": {},
  "source": "// SPDX-License-Identifier: MIT\r\npragma solidity ^0.8.4;\r\n\r\ncontract Factories {\r\n    //This enum represents factory's status\r\n    enum Status { Unregister, Registered, Banned }\r\n\r\n    //This struct represents identity of factory\r\n    //name   : factory's name\r\n    //wallet : factory's address\r\n    //id     : factory's id that is acquire when register\r\n    //facAddress    : Real address of factory\r\n    //fertilizerId  : Array for record all factory product\r\n    //fertilizerInfo: Detail of fertilizerId\r\n    struct FactoryIdentity {\r\n        string name;\r\n        address wallet;\r\n        bytes32 id;\r\n        string facAddress;\r\n        bytes32[] fertilizerId;\r\n    }\r\n\r\n    //This struct represents infomation of product(fertilizer)\r\n    //fertilizerId: Product's id\r\n    //npk         : Product npk;\r\n    //detail      : Other product detail\r\n    //price       : The price of this product\r\n    struct FertilizerInfo {\r\n        bytes32 fertilizerId;\r\n        int[3] npk;\r\n        string detail;\r\n        uint price;\r\n    }\r\n\r\n    //This struct represents fertilizerLot status\r\n    //ownerWallet : address of the owner of this product lot\r\n    //date        : produced time\r\n    //quantity    : The quantity of this product lot\r\n    //price       : The price of this product lot\r\n    //status      : The status of this product lot\r\n    struct FertilizerLot {\r\n        address ownerWallet;\r\n        uint date;\r\n        uint quantity;\r\n        uint price;\r\n        Status status;\r\n    }\r\n    mapping(bytes32 => address payable) public produceTagToWallet;\r\n\r\n    //This mapping maintains all factories' identity\r\n    mapping(address => FactoryIdentity) public factories;\r\n    \r\n    //This mapping maintains all factories' fertilizer info\r\n    mapping(address => mapping(bytes32 => FertilizerInfo)) public factoriesFertilizerInfo;\r\n\r\n    //This mapping maintains all factories' fertilizer lots\r\n    mapping(address => mapping(bytes32 => bytes32[])) public factoriesFertilizerLot;\r\n\r\n    //This mapping maintains all fertilizers' status\r\n    mapping(bytes32 => FertilizerLot) public fertilizerLot;\r\n\r\n    //This event will be emitted when a factory is registered\r\n    event FactoryRegistered(bytes32 indexed id, string name, address wallet);\r\n\r\n    //This event will be emitted when a fertilizer lot is produced\r\n    event FertilizerProduced(bytes32 indexed id, bytes32 lotId, int[3] npk, string detail);\r\n\r\n    //This modifier checks if the caller is registered as a factory\r\n    modifier isRegistered {\r\n        require(factories[msg.sender].wallet != address(0), \"Factory not found!\");\r\n        _;\r\n    }\r\n\r\n    //This function registers a new factory\r\n    function registerFactory(string memory _name, string memory _facAddress) public {\r\n        bytes32 id = keccak256(abi.encodePacked(block.number, block.timestamp, msg.sender, _name));\r\n        factories[msg.sender] = FactoryIdentity(_name, msg.sender, id, _facAddress, new bytes32[](0));\r\n        emit FactoryRegistered(id, _name, msg.sender);\r\n    }\r\n\r\n    //This function produces a new fertilizer lot\r\n    function produceFertilizerLot(bytes32 _id, int[3] memory _npk, string memory _detail, uint _quantity, uint _price) public isRegistered {\r\n        bytes32 lotId = keccak256(abi.encodePacked(_id, block.number, block.timestamp, msg.sender));\r\n        fertilizerLot[lotId] = FertilizerLot(msg.sender, block.timestamp, _quantity, _price, Status.Registered);\r\n        factories[msg.sender].fertilizerId.push(_id);\r\n        factoriesFertilizerInfo[msg.sender][_id] = FertilizerInfo(_id, _npk, _detail, _price);\r\n        factoriesFertilizerLot[msg.sender][_id].push(lotId);\r\n        emit FertilizerProduced(_id, lotId, _npk, _detail);\r\n    }\r\n\r\n    //This function gets all fertilizer lots produced by a factory\r\n    function getFertilizerLots(bytes32 _id) public view returns(bytes32[] memory) {\r\n        return factoriesFertilizerLot[msg.sender][_id];\r\n    }\r\n\r\n    //This function gets the price of a given fertilizer based on its ID\r\n    function getPrice(bytes32 _produceTag) public view returns(uint) {\r\n        return factoriesFertilizerInfo[msg.sender][_produceTag].price;\r\n    }\r\n\r\n    //This function allows farmers to buy fertilizer lots from factories\r\n    function sellFert(bytes32 _fertilizerId, bytes32 _produceTag, uint _buyAmount) public payable {\r\n        uint totalPrice = getPrice(_fertilizerId) * _buyAmount;\r\n        require(msg.value == totalPrice, \"Insufficient funds\");\r\n        address payable factoryWallet = payable(getWallet(_produceTag));\r\n        require(factoryWallet != address(0), \"Factory not found\");\r\n        factoryWallet.transfer(msg.value);\r\n        bytes32[] storage lots = factoriesFertilizerLot[msg.sender][_fertilizerId];\r\n        uint remainingAmount = _buyAmount;\r\n        for (uint i = 0; i < lots.length && remainingAmount > 0; i++) {\r\n            FertilizerLot storage lot = fertilizerLot[lots[i]];\r\n            if (lot.status == Status.Registered && lot.quantity > 0 && lot.price == getPrice(_fertilizerId)) {\r\n                uint amountToBuy = lot.quantity < remainingAmount ? lot.quantity : remainingAmount;\r\n                lot.quantity -= amountToBuy;\r\n                remainingAmount -= amountToBuy;\r\n                if (lot.quantity == 0) {\r\n                    lot.status = Status.Unregister;\r\n                }\r\n                payable(msg.sender).transfer(amountToBuy * lot.price);\r\n            }\r\n        }\r\n        require(remainingAmount == 0, \"Not enough fertilizer lots available\");\r\n    }\r\n    \r\n    //This function retrieves the wallet address of a factory based on its produce tag\r\n    function getWallet(bytes32 _produceTag) public view returns(address) {\r\n        for (uint i = 0; i < factories[msg.sender].fertilizerId.length; i++) {\r\n            bytes32 fertilizerId = factories[msg.sender].fertilizerId[i];\r\n            if (keccak256(abi.encodePacked(factoriesFertilizerInfo[msg.sender][fertilizerId].fertilizerId)) == keccak256(abi.encodePacked(_produceTag))) {\r\n                return factories[msg.sender].wallet;\r\n            }\r\n        }\r\n        return address(0);\r\n    }\r\n}",
  "sourcePath": "D:\\Blue chip technologies\\Blockchain dev intern\\Task_3\\test-sca\\test-sca\\contracts\\Factories.sol",
  "compiler": {
    "name": "solc",
    "version": "0.8.19+commit.7dd6d404.Emscripten.clang"
  },
  "schemaVersion": "3.4.13",
  "updatedAt": "2023-06-05T13:52:53.796Z",
  "networkType": "ethereum",
  "devdoc": {
    "kind": "dev",
    "methods": {},
    "version": 1
  },
  "userdoc": {
    "kind": "user",
    "methods": {},
    "version": 1
  }
}