{
  "contractName": "Farmers",
  "abi": [
    {
      "inputs": [
        {
          "internalType": "address",
          "name": "FACTORIES_CONTRACT",
          "type": "address"
        },
        {
          "internalType": "address",
          "name": "EXCHANGE_CONTRACT",
          "type": "address"
        }
      ],
      "stateMutability": "nonpayable",
      "type": "constructor"
    },
    {
      "inputs": [
        {
          "internalType": "string",
          "name": "_name",
          "type": "string"
        },
        {
          "internalType": "uint256",
          "name": "_farmArea",
          "type": "uint256"
        },
        {
          "internalType": "string",
          "name": "_farmAddress",
          "type": "string"
        }
      ],
      "name": "register",
      "outputs": [],
      "stateMutability": "nonpayable",
      "type": "function"
    },
    {
      "inputs": [
        {
          "internalType": "string",
          "name": "_plantGrow",
          "type": "string"
        },
        {
          "internalType": "uint256",
          "name": "_useArea",
          "type": "uint256"
        }
      ],
      "name": "plant",
      "outputs": [],
      "stateMutability": "nonpayable",
      "type": "function"
    },
    {
      "inputs": [
        {
          "internalType": "bytes32",
          "name": "_farmId",
          "type": "bytes32"
        },
        {
          "internalType": "bytes32",
          "name": "_fertilizerId",
          "type": "bytes32"
        },
        {
          "internalType": "bytes32",
          "name": "_produceTag",
          "type": "bytes32"
        },
        {
          "internalType": "uint256",
          "name": "_amount",
          "type": "uint256"
        }
      ],
      "name": "fertilize",
      "outputs": [],
      "stateMutability": "nonpayable",
      "type": "function"
    },
    {
      "inputs": [
        {
          "internalType": "bytes32",
          "name": "_farmId",
          "type": "bytes32"
        },
        {
          "internalType": "uint256",
          "name": "_harvestAmount",
          "type": "uint256"
        }
      ],
      "name": "havest",
      "outputs": [],
      "stateMutability": "nonpayable",
      "type": "function"
    },
    {
      "inputs": [
        {
          "internalType": "bytes32",
          "name": "",
          "type": "bytes32"
        },
        {
          "internalType": "bytes32",
          "name": "_produceTag",
          "type": "bytes32"
        },
        {
          "internalType": "uint256",
          "name": "_buyAmount",
          "type": "uint256"
        }
      ],
      "name": "buyFertilizer",
      "outputs": [],
      "stateMutability": "payable",
      "type": "function",
      "payable": true
    },
    {
      "inputs": [
        {
          "internalType": "uint256",
          "name": "_expandArea",
          "type": "uint256"
        }
      ],
      "name": "expandFarm",
      "outputs": [],
      "stateMutability": "nonpayable",
      "type": "function"
    },
    {
      "inputs": [
        {
          "internalType": "uint256",
          "name": "_reduceArea",
          "type": "uint256"
        }
      ],
      "name": "reduceFarm",
      "outputs": [],
      "stateMutability": "nonpayable",
      "type": "function"
    },
    {
      "inputs": [],
      "name": "getStatus",
      "outputs": [
        {
          "internalType": "uint256",
          "name": "",
          "type": "uint256"
        }
      ],
      "stateMutability": "view",
      "type": "function",
      "constant": true
    },
    {
      "inputs": [],
      "name": "getFarmer",
      "outputs": [
        {
          "internalType": "string",
          "name": "",
          "type": "string"
        },
        {
          "internalType": "uint256",
          "name": "",
          "type": "uint256"
        },
        {
          "internalType": "uint256",
          "name": "",
          "type": "uint256"
        },
        {
          "internalType": "string",
          "name": "",
          "type": "string"
        },
        {
          "internalType": "bytes32[]",
          "name": "",
          "type": "bytes32[]"
        }
      ],
      "stateMutability": "view",
      "type": "function",
      "constant": true
    },
    {
      "inputs": [
        {
          "internalType": "bytes32",
          "name": "_farmId",
          "type": "bytes32"
        }
      ],
      "name": "getFarm",
      "outputs": [
        {
          "internalType": "address",
          "name": "",
          "type": "address"
        },
        {
          "internalType": "uint256",
          "name": "",
          "type": "uint256"
        },
        {
          "internalType": "string",
          "name": "",
          "type": "string"
        },
        {
          "internalType": "uint256",
          "name": "",
          "type": "uint256"
        },
        {
          "internalType": "uint256",
          "name": "",
          "type": "uint256"
        },
        {
          "internalType": "uint256",
          "name": "",
          "type": "uint256"
        },
        {
          "components": [
            {
              "internalType": "bytes32",
              "name": "fertilizerId",
              "type": "bytes32"
            },
            {
              "internalType": "bytes32",
              "name": "produceTag",
              "type": "bytes32"
            },
            {
              "internalType": "uint256",
              "name": "amount",
              "type": "uint256"
            },
            {
              "internalType": "uint256",
              "name": "date",
              "type": "uint256"
            }
          ],
          "internalType": "struct Farmers.FertilizerLog[]",
          "name": "",
          "type": "tuple[]"
        }
      ],
      "stateMutability": "view",
      "type": "function",
      "constant": true
    },
    {
      "inputs": [
        {
          "internalType": "address",
          "name": "_farmer",
          "type": "address"
        }
      ],
      "name": "getFarmArea",
      "outputs": [
        {
          "internalType": "uint256",
          "name": "",
          "type": "uint256"
        }
      ],
      "stateMutability": "view",
      "type": "function",
      "constant": true
    },
    {
      "inputs": [
        {
          "internalType": "address",
          "name": "_farmer",
          "type": "address"
        }
      ],
      "name": "getUsedFarmArea",
      "outputs": [
        {
          "internalType": "uint256",
          "name": "",
          "type": "uint256"
        }
      ],
      "stateMutability": "view",
      "type": "function",
      "constant": true
    }
  ],
  "bytecode": "0x60806040523480156200001157600080fd5b50604051620026443803806200264483398181016040528101906200003791906200012a565b816000806101000a81548173ffffffffffffffffffffffffffffffffffffffff021916908373ffffffffffffffffffffffffffffffffffffffff16021790555080600160006101000a81548173ffffffffffffffffffffffffffffffffffffffff021916908373ffffffffffffffffffffffffffffffffffffffff160217905550505062000171565b600080fd5b600073ffffffffffffffffffffffffffffffffffffffff82169050919050565b6000620000f282620000c5565b9050919050565b6200010481620000e5565b81146200011057600080fd5b50565b6000815190506200012481620000f9565b92915050565b60008060408385031215620001445762000143620000c0565b5b6000620001548582860162000113565b9250506020620001678582860162000113565b9150509250929050565b6124c380620001816000396000f3fe6080604052600436106100a75760003560e01c806397c71a371161006457806397c71a37146101b7578063a39f6f64146101e0578063b767f27e1461021d578063e43d7b9e14610246578063ecf1ecb114610283578063fe3e65e1146102ac576100a7565b80632388ec4c146100ac5780634e69d560146100db578063637a0832146101065780637cbfd4281461012f5780638c1a2df514610158578063900f780614610174575b600080fd5b3480156100b857600080fd5b506100c16102d5565b6040516100d29594939291906117bb565b60405180910390f35b3480156100e757600080fd5b506100f0610546565b6040516100fd9190611823565b60405180910390f35b34801561011257600080fd5b5061012d600480360381019061012891906119b3565b6105ac565b005b34801561013b57600080fd5b5061015660048036038101906101519190611a3e565b61086f565b005b610172600480360381019061016d9190611a97565b610966565b005b34801561018057600080fd5b5061019b60048036038101906101969190611aea565b610c83565b6040516101ae9796959493929190611c6b565b60405180910390f35b3480156101c357600080fd5b506101de60048036038101906101d99190611ce8565b610e85565b005b3480156101ec57600080fd5b5061020760048036038101906102029190611d70565b6110ed565b6040516102149190611823565b60405180910390f35b34801561022957600080fd5b50610244600480360381019061023f9190611d9d565b611139565b005b34801561025257600080fd5b5061026d60048036038101906102689190611d70565b611356565b60405161027a9190611823565b60405180910390f35b34801561028f57600080fd5b506102aa60048036038101906102a59190611a3e565b6113a2565b005b3480156102b857600080fd5b506102d360048036038101906102ce9190611ddd565b611499565b005b60606000806060806000600460003373ffffffffffffffffffffffffffffffffffffffff1673ffffffffffffffffffffffffffffffffffffffff1681526020019081526020016000206040518060e001604052908160008201805461033990611e73565b80601f016020809104026020016040519081016040528092919081815260200182805461036590611e73565b80156103b25780601f10610387576101008083540402835291602001916103b2565b820191906000526020600020905b81548152906001019060200180831161039557829003601f168201915b505050505081526020016001820160009054906101000a900473ffffffffffffffffffffffffffffffffffffffff1673ffffffffffffffffffffffffffffffffffffffff1673ffffffffffffffffffffffffffffffffffffffff16815260200160028201548152602001600382015481526020016004820154815260200160058201805461043f90611e73565b80601f016020809104026020016040519081016040528092919081815260200182805461046b90611e73565b80156104b85780601f1061048d576101008083540402835291602001916104b8565b820191906000526020600020905b81548152906001019060200180831161049b57829003601f168201915b505050505081526020016006820180548060200260200160405190810160405280929190818152602001828054801561051057602002820191906000526020600020905b8154815260200190600101908083116104fc575b50505050508152505090508060000151816060015182608001518360a001518460c0015195509550955095509550509091929394565b6000600360003373ffffffffffffffffffffffffffffffffffffffff1673ffffffffffffffffffffffffffffffffffffffff16815260200190815260200160002060009054906101000a900460ff1660028111156105a7576105a6611ea4565b5b905090565b600060028111156105c0576105bf611ea4565b5b600360003373ffffffffffffffffffffffffffffffffffffffff1673ffffffffffffffffffffffffffffffffffffffff16815260200190815260200160002060009054906101000a900460ff16600281111561061f5761061e611ea4565b5b1461062957600080fd5b33600460003373ffffffffffffffffffffffffffffffffffffffff1673ffffffffffffffffffffffffffffffffffffffff16815260200190815260200160002060010160006101000a81548173ffffffffffffffffffffffffffffffffffffffff021916908373ffffffffffffffffffffffffffffffffffffffff1602179055506001600360003373ffffffffffffffffffffffffffffffffffffffff1673ffffffffffffffffffffffffffffffffffffffff16815260200190815260200160002060006101000a81548160ff0219169083600281111561070d5761070c611ea4565b5b021790555082600460003373ffffffffffffffffffffffffffffffffffffffff1673ffffffffffffffffffffffffffffffffffffffff1681526020019081526020016000206000019081610761919061207f565b5081600460003373ffffffffffffffffffffffffffffffffffffffff1673ffffffffffffffffffffffffffffffffffffffff1681526020019081526020016000206003018190555080600460003373ffffffffffffffffffffffffffffffffffffffff1673ffffffffffffffffffffffffffffffffffffffff16815260200190815260200160002060050190816107f8919061207f565b5082813360405160200161080e939291906121d5565b60405160208183030381529060405280519060200120600460003373ffffffffffffffffffffffffffffffffffffffff1673ffffffffffffffffffffffffffffffffffffffff16815260200190815260200160002060020181905550505050565b600460003373ffffffffffffffffffffffffffffffffffffffff1673ffffffffffffffffffffffffffffffffffffffff16815260200190815260200160002060010160009054906101000a900473ffffffffffffffffffffffffffffffffffffffff1673ffffffffffffffffffffffffffffffffffffffff163373ffffffffffffffffffffffffffffffffffffffff161461090957600080fd5b8061091333611356565b61091d9190612239565b600460003373ffffffffffffffffffffffffffffffffffffffff1673ffffffffffffffffffffffffffffffffffffffff1681526020019081526020016000206003018190555050565b600460003373ffffffffffffffffffffffffffffffffffffffff1673ffffffffffffffffffffffffffffffffffffffff16815260200190815260200160002060010160009054906101000a900473ffffffffffffffffffffffffffffffffffffffff1673ffffffffffffffffffffffffffffffffffffffff163373ffffffffffffffffffffffffffffffffffffffff1614610a0057600080fd5b8060008054906101000a900473ffffffffffffffffffffffffffffffffffffffff1673ffffffffffffffffffffffffffffffffffffffff166331d98b3f846040518263ffffffff1660e01b8152600401610a5a919061227c565b602060405180830381865afa158015610a77573d6000803e3d6000fd5b505050506040513d601f19601f82011682018060405250810190610a9b91906122ac565b610aa591906122d9565b3414610ab057600080fd5b60008060009054906101000a900473ffffffffffffffffffffffffffffffffffffffff1673ffffffffffffffffffffffffffffffffffffffff1663789d392a846040518263ffffffff1660e01b8152600401610b0c919061227c565b602060405180830381865afa158015610b29573d6000803e3d6000fd5b505050506040513d601f19601f82011682018060405250810190610b4d9190612330565b90508073ffffffffffffffffffffffffffffffffffffffff166108fc349081150290604051600060405180830381858888f19350505050158015610b95573d6000803e3d6000fd5b5060008060009054906101000a900473ffffffffffffffffffffffffffffffffffffffff1673ffffffffffffffffffffffffffffffffffffffff16638aa053a4856040518263ffffffff1660e01b8152600401610bf2919061227c565b602060405180830381865afa158015610c0f573d6000803e3d6000fd5b505050506040513d601f19601f82011682018060405250810190610c33919061239b565b90508073ffffffffffffffffffffffffffffffffffffffff166108fc349081150290604051600060405180830381858888f19350505050158015610c7b573d6000803e3d6000fd5b505050505050565b6000806060600080600060606000600560008a81526020019081526020016000206040518060e00160405290816000820160009054906101000a900473ffffffffffffffffffffffffffffffffffffffff1673ffffffffffffffffffffffffffffffffffffffff1673ffffffffffffffffffffffffffffffffffffffff16815260200160018201548152602001600282018054610d1f90611e73565b80601f0160208091040260200160405190810160405280929190818152602001828054610d4b90611e73565b8015610d985780601f10610d6d57610100808354040283529160200191610d98565b820191906000526020600020905b815481529060010190602001808311610d7b57829003601f168201915b5050505050815260200160038201548152602001600482015481526020016005820154815260200160068201805480602002602001604051908101604052809291908181526020016000905b82821015610e3e578382906000526020600020906004020160405180608001604052908160008201548152602001600182015481526020016002820154815260200160038201548152505081526020019060010190610de4565b50505050815250509050806000015181602001518260400151836060015184608001518560a001518660c00151975097509750975097509750975050919395979092949650565b600460003373ffffffffffffffffffffffffffffffffffffffff1673ffffffffffffffffffffffffffffffffffffffff16815260200190815260200160002060010160009054906101000a900473ffffffffffffffffffffffffffffffffffffffff1673ffffffffffffffffffffffffffffffffffffffff163373ffffffffffffffffffffffffffffffffffffffff1614610f1f57600080fd5b80610f29336110ed565b610f3391906123c8565b610f3c33611356565b1015610f4757600080fd5b80610f51336110ed565b610f5b91906123c8565b600460003373ffffffffffffffffffffffffffffffffffffffff1673ffffffffffffffffffffffffffffffffffffffff168152602001908152602001600020600401819055506000823342604051602001610fb89392919061241d565b604051602081830303815290604052805190602001209050336005600083815260200190815260200160002060000160006101000a81548173ffffffffffffffffffffffffffffffffffffffff021916908373ffffffffffffffffffffffffffffffffffffffff16021790555081600560008381526020019081526020016000206001018190555082600560008381526020019081526020016000206002019081611063919061207f565b50426005600083815260200190815260200160002060030181905550600460003373ffffffffffffffffffffffffffffffffffffffff1673ffffffffffffffffffffffffffffffffffffffff168152602001908152602001600020600601819080600181540180825580915050600190039060005260206000200160009091909190915055505050565b6000600460008373ffffffffffffffffffffffffffffffffffffffff1673ffffffffffffffffffffffffffffffffffffffff168152602001908152602001600020600401549050919050565b600460003373ffffffffffffffffffffffffffffffffffffffff1673ffffffffffffffffffffffffffffffffffffffff16815260200190815260200160002060010160009054906101000a900473ffffffffffffffffffffffffffffffffffffffff1673ffffffffffffffffffffffffffffffffffffffff163373ffffffffffffffffffffffffffffffffffffffff16146111d357600080fd5b8160006005600083815260200190815260200160002060030154116111f757600080fd5b600060056000838152602001908152602001600020600401541461121a57600080fd5b600560008481526020019081526020016000206001015461123a336110ed565b6112449190612239565b600460003373ffffffffffffffffffffffffffffffffffffffff1673ffffffffffffffffffffffffffffffffffffffff16815260200190815260200160002060040181905550426005600085815260200190815260200160002060040181905550816005600085815260200190815260200160002060050181905550600160009054906101000a900473ffffffffffffffffffffffffffffffffffffffff1673ffffffffffffffffffffffffffffffffffffffff166394ac5c5e8484306040518463ffffffff1660e01b815260040161131f93929190612456565b600060405180830381600087803b15801561133957600080fd5b505af115801561134d573d6000803e3d6000fd5b50505050505050565b6000600460008373ffffffffffffffffffffffffffffffffffffffff1673ffffffffffffffffffffffffffffffffffffffff168152602001908152602001600020600301549050919050565b600460003373ffffffffffffffffffffffffffffffffffffffff1673ffffffffffffffffffffffffffffffffffffffff16815260200190815260200160002060010160009054906101000a900473ffffffffffffffffffffffffffffffffffffffff1673ffffffffffffffffffffffffffffffffffffffff163373ffffffffffffffffffffffffffffffffffffffff161461143c57600080fd5b8061144633611356565b61145091906123c8565b600460003373ffffffffffffffffffffffffffffffffffffffff1673ffffffffffffffffffffffffffffffffffffffff1681526020019081526020016000206003018190555050565b600460003373ffffffffffffffffffffffffffffffffffffffff1673ffffffffffffffffffffffffffffffffffffffff16815260200190815260200160002060010160009054906101000a900473ffffffffffffffffffffffffffffffffffffffff1673ffffffffffffffffffffffffffffffffffffffff163373ffffffffffffffffffffffffffffffffffffffff161461153357600080fd5b83600060056000838152602001908152602001600020600301541161155757600080fd5b600060056000838152602001908152602001600020600401541461157a57600080fd5b61158261161c565b8481600001818152505083816020018181525050828160400181815250504281606001818152505060056000878152602001908152602001600020600601819080600181540180825580915050600190039060005260206000209060040201600090919091909150600082015181600001556020820151816001015560408201518160020155606082015181600301555050505050505050565b6040518060800160405280600080191681526020016000801916815260200160008152602001600081525090565b600081519050919050565b600082825260208201905092915050565b60005b83811015611684578082015181840152602081019050611669565b60008484015250505050565b6000601f19601f8301169050919050565b60006116ac8261164a565b6116b68185611655565b93506116c6818560208601611666565b6116cf81611690565b840191505092915050565b6000819050919050565b6116ed816116da565b82525050565b600081519050919050565b600082825260208201905092915050565b6000819050602082019050919050565b6000819050919050565b6117328161171f565b82525050565b60006117448383611729565b60208301905092915050565b6000602082019050919050565b6000611768826116f3565b61177281856116fe565b935061177d8361170f565b8060005b838110156117ae5781516117958882611738565b97506117a083611750565b925050600181019050611781565b5085935050505092915050565b600060a08201905081810360008301526117d581886116a1565b90506117e460208301876116e4565b6117f160408301866116e4565b818103606083015261180381856116a1565b90508181036080830152611817818461175d565b90509695505050505050565b600060208201905061183860008301846116e4565b92915050565b6000604051905090565b600080fd5b600080fd5b600080fd5b600080fd5b7f4e487b7100000000000000000000000000000000000000000000000000000000600052604160045260246000fd5b61189482611690565b810181811067ffffffffffffffff821117156118b3576118b261185c565b5b80604052505050565b60006118c661183e565b90506118d2828261188b565b919050565b600067ffffffffffffffff8211156118f2576118f161185c565b5b6118fb82611690565b9050602081019050919050565b82818337600083830152505050565b600061192a611925846118d7565b6118bc565b90508281526020810184848401111561194657611945611857565b5b611951848285611908565b509392505050565b600082601f83011261196e5761196d611852565b5b813561197e848260208601611917565b91505092915050565b611990816116da565b811461199b57600080fd5b50565b6000813590506119ad81611987565b92915050565b6000806000606084860312156119cc576119cb611848565b5b600084013567ffffffffffffffff8111156119ea576119e961184d565b5b6119f686828701611959565b9350506020611a078682870161199e565b925050604084013567ffffffffffffffff811115611a2857611a2761184d565b5b611a3486828701611959565b9150509250925092565b600060208284031215611a5457611a53611848565b5b6000611a628482850161199e565b91505092915050565b611a748161171f565b8114611a7f57600080fd5b50565b600081359050611a9181611a6b565b92915050565b600080600060608486031215611ab057611aaf611848565b5b6000611abe86828701611a82565b9350506020611acf86828701611a82565b9250506040611ae08682870161199e565b9150509250925092565b600060208284031215611b0057611aff611848565b5b6000611b0e84828501611a82565b91505092915050565b600073ffffffffffffffffffffffffffffffffffffffff82169050919050565b6000611b4282611b17565b9050919050565b611b5281611b37565b82525050565b600081519050919050565b600082825260208201905092915050565b6000819050602082019050919050565b611b8d816116da565b82525050565b608082016000820151611ba96000850182611729565b506020820151611bbc6020850182611729565b506040820151611bcf6040850182611b84565b506060820151611be26060850182611b84565b50505050565b6000611bf48383611b93565b60808301905092915050565b6000602082019050919050565b6000611c1882611b58565b611c228185611b63565b9350611c2d83611b74565b8060005b83811015611c5e578151611c458882611be8565b9750611c5083611c00565b925050600181019050611c31565b5085935050505092915050565b600060e082019050611c80600083018a611b49565b611c8d60208301896116e4565b8181036040830152611c9f81886116a1565b9050611cae60608301876116e4565b611cbb60808301866116e4565b611cc860a08301856116e4565b81810360c0830152611cda8184611c0d565b905098975050505050505050565b60008060408385031215611cff57611cfe611848565b5b600083013567ffffffffffffffff811115611d1d57611d1c61184d565b5b611d2985828601611959565b9250506020611d3a8582860161199e565b9150509250929050565b611d4d81611b37565b8114611d5857600080fd5b50565b600081359050611d6a81611d44565b92915050565b600060208284031215611d8657611d85611848565b5b6000611d9484828501611d5b565b91505092915050565b60008060408385031215611db457611db3611848565b5b6000611dc285828601611a82565b9250506020611dd38582860161199e565b9150509250929050565b60008060008060808587031215611df757611df6611848565b5b6000611e0587828801611a82565b9450506020611e1687828801611a82565b9350506040611e2787828801611a82565b9250506060611e388782880161199e565b91505092959194509250565b7f4e487b7100000000000000000000000000000000000000000000000000000000600052602260045260246000fd5b60006002820490506001821680611e8b57607f821691505b602082108103611e9e57611e9d611e44565b5b50919050565b7f4e487b7100000000000000000000000000000000000000000000000000000000600052602160045260246000fd5b60008190508160005260206000209050919050565b60006020601f8301049050919050565b600082821b905092915050565b600060088302611f357fffffffffffffffffffffffffffffffffffffffffffffffffffffffffffffffff82611ef8565b611f3f8683611ef8565b95508019841693508086168417925050509392505050565b6000819050919050565b6000611f7c611f77611f72846116da565b611f57565b6116da565b9050919050565b6000819050919050565b611f9683611f61565b611faa611fa282611f83565b848454611f05565b825550505050565b600090565b611fbf611fb2565b611fca818484611f8d565b505050565b5b81811015611fee57611fe3600082611fb7565b600181019050611fd0565b5050565b601f8211156120335761200481611ed3565b61200d84611ee8565b8101602085101561201c578190505b61203061202885611ee8565b830182611fcf565b50505b505050565b600082821c905092915050565b600061205660001984600802612038565b1980831691505092915050565b600061206f8383612045565b9150826002028217905092915050565b6120888261164a565b67ffffffffffffffff8111156120a1576120a061185c565b5b6120ab8254611e73565b6120b6828285611ff2565b600060209050601f8311600181146120e957600084156120d7578287015190505b6120e18582612063565b865550612149565b601f1984166120f786611ed3565b60005b8281101561211f578489015182556001820191506020850194506020810190506120fa565b8683101561213c5784890151612138601f891682612045565b8355505b6001600288020188555050505b505050505050565b600081905092915050565b60006121678261164a565b6121718185612151565b9350612181818560208601611666565b80840191505092915050565b60008160601b9050919050565b60006121a58261218d565b9050919050565b60006121b78261219a565b9050919050565b6121cf6121ca82611b37565b6121ac565b82525050565b60006121e1828661215c565b91506121ed828561215c565b91506121f982846121be565b601482019150819050949350505050565b7f4e487b7100000000000000000000000000000000000000000000000000000000600052601160045260246000fd5b6000612244826116da565b915061224f836116da565b92508282039050818111156122675761226661220a565b5b92915050565b6122768161171f565b82525050565b6000602082019050612291600083018461226d565b92915050565b6000815190506122a681611987565b92915050565b6000602082840312156122c2576122c1611848565b5b60006122d084828501612297565b91505092915050565b60006122e4826116da565b91506122ef836116da565b92508282026122fd816116da565b915082820484148315176123145761231361220a565b5b5092915050565b60008151905061232a81611d44565b92915050565b60006020828403121561234657612345611848565b5b60006123548482850161231b565b91505092915050565b600061236882611b17565b9050919050565b6123788161235d565b811461238357600080fd5b50565b6000815190506123958161236f565b92915050565b6000602082840312156123b1576123b0611848565b5b60006123bf84828501612386565b91505092915050565b60006123d3826116da565b91506123de836116da565b92508282019050808211156123f6576123f561220a565b5b92915050565b6000819050919050565b612417612412826116da565b6123fc565b82525050565b6000612429828661215c565b915061243582856121be565b6014820191506124458284612406565b602082019150819050949350505050565b600060608201905061246b600083018661226d565b61247860208301856116e4565b6124856040830184611b49565b94935050505056fea2646970667358221220a3e7436ba2462549fa22a8b3abf96c333061b034a58b0a93d8a05597f72b31dd64736f6c63430008130033",
  "immutableReferences": {},
  "source": "// SPDX-License-Identifier: MIT\r\npragma solidity ^0.8.4;\r\n\r\nimport \"./Exchange.sol\";\r\nimport \"./Factories.sol\";\r\n\r\ncontract Farmers {\r\n    //This enum represents farmer's status\r\n    enum Status{ Unregister, Registered, Banned}\r\n\r\n    Factories factories;\r\n    Exchange exchange;\r\n\r\n    //This struct represents identity of farmer\r\n    //name   : farmer's name\r\n    //wallet : farmer's address\r\n    //id     : farmer's id that is acquire when register\r\n    //farmArea: estate that farmer had owned for growing store in \"squre meter\"\r\n    //usedFarmArea: part of farmer's estate that currently use for growing.\r\n    //farmAddress : Real address of farm that farmer owned;\r\n    //farmIdRecord: Array for record all farm Id\r\n    struct Farmer{\r\n        string name;\r\n        address wallet;\r\n        bytes32 id;\r\n        uint farmArea;\r\n        uint usedFarmArea;\r\n        string farmAddress;\r\n        bytes32[] farmIdRecord;\r\n    }\r\n\r\n    //This struct represents farmer's growing record including growing and harvested also as fertilize's log.\r\n    //owner      : Owner of this farm\r\n    //usedArea   : Amount of estate that use for this growing\r\n    //plantGrow  : Name of crop or plant that grow\r\n    //startDate  : Timestamp when start to grow crop\r\n    //harvestDate: Timestamp when harvest crop\r\n    //harvestAmount: Weight of crop that had harvested\r\n    //fertLog    : Fertilize's record\r\n    struct Farm{\r\n        address owner;\r\n        uint usedArea;\r\n        string plantGrow;\r\n        uint startDate;\r\n        uint harvestDate;\r\n        uint havestamount;\r\n        FertilizerLog[] fertLog;\r\n        //bytes32 certificate;\r\n    }\r\n\r\n    //This struct represents templete of fertilize\r\n    //fertilizerId : Fertilizer Id from factory\r\n    //produceTag: Fertilizer Tag from factory\r\n    //amount    : Amount of fertilizer that used in kg.\r\n    //date      : Timestamp when apply fertilizer\r\n    struct FertilizerLog{\r\n        bytes32 fertilizerId;\r\n        bytes32 produceTag;\r\n        uint amount;\r\n        uint date;\r\n    }\r\n    //This is mapping represents produce tag to wallet\r\n    mapping(bytes32 => address payable) produceTagToWallet;\r\n\r\n    //This mapping represents farmerStatus by map address to status\r\n    mapping(address => Status) farmerStatus;\r\n\r\n    //This mapping represents farmer identity by map address to farmer information\r\n    mapping(address => Farmer) farmerDatabase;\r\n\r\n    //This mapping represents farm information by map farm tag to it's information\r\n    mapping(bytes32 => Farm) farmTag;\r\n\r\n    //Constructor of this contract that require 2 args that are contract address of factories and exchange contract.\r\n    constructor(address FACTORIES_CONTRACT, address EXCHANGE_CONTRACT) {\r\n        factories = Factories(FACTORIES_CONTRACT);\r\n        exchange = Exchange(EXCHANGE_CONTRACT);\r\n    }\r\n\r\n    //This modifier use to allow only owner to execute function\r\n    modifier owner(){\r\n        require(msg.sender == farmerDatabase[msg.sender].wallet);\r\n        _;\r\n    }\r\n    //This modifier use to allow only planted farm to execute function\r\n    modifier planting(bytes32 _farmId){\r\n        require(farmTag[_farmId].startDate > 0);\r\n        require(farmTag[_farmId].harvestDate == 0);\r\n        _;\r\n    }\r\n\r\n    //This function use to register an unregister farmer, it's require farmer's name,\r\n    //farm area that farmer own, farmer's farm address.\r\n    function register(string memory _name, uint _farmArea, string memory _farmAddress) public{\r\n        require(farmerStatus[msg.sender] == Status.Unregister);\r\n        farmerDatabase[msg.sender].wallet = msg.sender;\r\n        farmerStatus[msg.sender] = Status.Registered;\r\n        farmerDatabase[msg.sender].name = _name;\r\n        farmerDatabase[msg.sender].farmArea = _farmArea;\r\n        farmerDatabase[msg.sender].farmAddress = _farmAddress;\r\n        farmerDatabase[msg.sender].id = keccak256(abi.encodePacked(_name,_farmAddress,msg.sender));\r\n    }\r\n\r\n    //this function use to plant on farm, it's require plant's name and amount of farm area that use.\r\n    function plant(string memory _plantGrow, uint _useArea)public owner {\r\n        require(getFarmArea(msg.sender) >= getUsedFarmArea(msg.sender) + _useArea);\r\n        farmerDatabase[msg.sender].usedFarmArea = getUsedFarmArea(msg.sender) + _useArea;\r\n        bytes32 _farmId = keccak256(abi.encodePacked(_plantGrow,msg.sender,block.timestamp));\r\n        farmTag[_farmId].owner = msg.sender;\r\n        farmTag[_farmId].usedArea = _useArea;\r\n        farmTag[_farmId].plantGrow = _plantGrow;\r\n        farmTag[_farmId].startDate = block.timestamp;\r\n        farmerDatabase[msg.sender].farmIdRecord.push(_farmId);\r\n    }\r\n\r\n    //\r\n    function fertilize(bytes32 _farmId, bytes32 _fertilizerId, bytes32 _produceTag, uint _amount)public owner planting(_farmId) {\r\n        //usedFert (Factory)\r\n        //apply\r\n        FertilizerLog memory tmp;\r\n        tmp.fertilizerId = _fertilizerId;\r\n        tmp.produceTag = _produceTag;\r\n        tmp.amount = _amount;\r\n        tmp.date = block.timestamp;\r\n        farmTag[_farmId].fertLog.push(tmp);\r\n    }\r\n\r\n    //this function use to havest a ready one, it's require farmId and harvested amount(in kg.).\r\n    function havest(bytes32 _farmId,uint _harvestAmount)public owner planting(_farmId) {\r\n        farmerDatabase[msg.sender].usedFarmArea = getUsedFarmArea(msg.sender) - farmTag[_farmId].usedArea;\r\n        farmTag[_farmId].harvestDate = block.timestamp;\r\n        farmTag[_farmId].havestamount = _harvestAmount;\r\n        exchange.addProduct(_farmId,_harvestAmount,address(this));\r\n    }\r\n\r\n    //this function use to buy Fertilizer from FACTORIES_CONTRACT,\r\n    //it's need to fill fertilizerId with it's tag and buying amount;\r\n     function buyFertilizer(bytes32 /*_fertilizerID*/, bytes32 _produceTag, uint _buyAmount) public payable owner {\r\n        // From factor\r\n        require(msg.value == factories.getPrice(_produceTag) * _buyAmount);\r\n\r\n        address payable factoryWallet = payable(factories.getWallet(_produceTag));\r\n        factoryWallet.transfer(msg.value);\r\n\r\n        address payable produceTagWallet = payable(factories.produceTagToWallet(_produceTag));\r\n        produceTagWallet.transfer(msg.value);\r\n    }\r\n\r\n    //this function use to expand farm, it's require the expanded area.\r\n    function expandFarm(uint _expandArea)public owner {\r\n        farmerDatabase[msg.sender].farmArea = getFarmArea(msg.sender) + _expandArea;\r\n    }\r\n\r\n    //this function use to expand farm, it's require the reduced area.\r\n    function reduceFarm(uint _reduceArea)public owner {\r\n        farmerDatabase[msg.sender].farmArea = getFarmArea(msg.sender) - _reduceArea;\r\n    }\r\n\r\n    //this function use to get farmer's status, it's return status in uint.\r\n    // 0 : Unregister\r\n    // 1 : Registered\r\n    // 2 : Banned\r\n    function getStatus()public view returns(uint) {\r\n        return uint(farmerStatus[msg.sender]);\r\n    }\r\n\r\n    //this function use to get farmer's information, it's return name,farmArea,usedFarmArea,farmAddress, and farmIdRecord.\r\n    function getFarmer()public view returns(string memory,uint,uint,string memory,bytes32[] memory) {\r\n        Farmer memory tmp = farmerDatabase[msg.sender];\r\n        return (tmp.name,tmp.farmArea,tmp.usedFarmArea,tmp.farmAddress,tmp.farmIdRecord);\r\n    }\r\n\r\n    //this function use to get farm information, it's return owner,usedArea,plantGrow,startDate,harvestDate,havestamount, and fertLog.\r\n    function getFarm(bytes32 _farmId)public view returns(address,uint,string memory,uint,uint,uint,FertilizerLog[] memory) {\r\n        Farm memory tmp = farmTag[_farmId];\r\n        return (tmp.owner,tmp.usedArea,tmp.plantGrow,tmp.startDate,tmp.harvestDate,tmp.havestamount,tmp.fertLog);\r\n    }\r\n\r\n    //this function use to get farmer's farm area.\r\n    function getFarmArea(address _farmer) public view returns(uint){\r\n        return farmerDatabase[_farmer].farmArea;\r\n    }\r\n\r\n    //this function use to get farmer's used farm area.\r\n    function getUsedFarmArea(address _farmer) public view returns(uint){\r\n        return farmerDatabase[_farmer].usedFarmArea;\r\n    }\r\n\r\n}",
  "sourcePath": "D:\\Blue chip technologies\\Blockchain dev intern\\Task_3\\test-sca\\test-sca\\contracts\\Farmers.sol",
  "compiler": {
    "name": "solc",
    "version": "0.8.19+commit.7dd6d404.Emscripten.clang"
  },
  "schemaVersion": "3.4.13",
  "updatedAt": "2023-06-05T13:52:53.834Z",
  "networkType": "ethereum",
  "devdoc": {
    "kind": "dev",
    "methods": {},
    "version": 1
  },
  "userdoc": {
    "kind": "user",
    "methods": {},
    "version": 1
  }
}